:020000040800F2
:1000000020040120DD010008E5010008E7010008E7
:10001000E9010008EB010008ED0100080000000004
:10002000000000000000000000000000EF010008D8
:10003000F101000800000000F3010008250200089B
:10004000F7010008F7010008F7010008F7010008B0
:10005000F7010008F7010008F7010008F7010008A0
:10006000F7010008F7010008F7010008F701000890
:10007000F7010008F7010008F7010008F701000880
:10008000F7010008F7010008F7010008F701000870
:10009000F7010008F7010008F7010008F701000860
:1000A000F7010008F7010008F7010008F701000850
:1000B000F7010008F7010008F7010008F701000840
:1000C000F7010008F7010008F7010008F701000830
:1000D000F7010008F7010008F7010008F701000820
:1000E000F7010008F7010008F7010008F701000810
:1000F000F7010008F7010008F7010008F701000800
:10010000F7010008F7010008F7010008F7010008EF
:10011000F7010008F7010008F7010008F7010008DF
:10012000F7010008F7010008F7010008F7010008CF
:10013000F7010008F7010008F7010008F7010008BF
:10014000F7010008F7010008F7010008F7010008AF
:10015000F7010008F7010008F7010008F70100089F
:10016000F7010008F7010008F7010008F70100088F
:10017000F7010008F7010008F7010008000000007F
:10018000F7010008F7010008F7010008F70100086F
:10019000F7010008F7010008F7010008F70100085F
:1001A000F7010008F7010008F7010008F70100084F
:1001B000F7010008F7010008F7010008F70100083F
:1001C000F7010008F7010008DFF80CD000F018F87C
:1001D00000480047850300082004012006488047A6
:1001E00006480047FEE7FEE7FEE7FEE7FEE7FEE71C
:1001F000FEE7FEE7FEE7FEE701030008C90100088D
:10020000064C074D06E0E06840F0010394E8070063
:1002100098471034AC42F6D3FFF7DAFFAC0400087D
:10022000CC04000804E005480068401C034908604D
:10023000024800680328F6DD704700001000012026
:1002400070B500200022022300240221274D2D68D2
:1002500005F00C0020B1042806D0082834D107E0AE
:10026000234D244E356033E0234D224E35602FE080
:100270001E4D2D1F2D68C5F380541C4D2D1F2D685C
:1002800005F03F0154B11C4DB5FBF1F5174E361F7B
:100290003668C6F3881605FB06F209E0144DB5FB77
:1002A000F1F5124E361F3668C6F3881605FB06F2C6
:1002B0000E4D2D1F2D68C5F301456D1C6B00B2FB63
:1002C000F3F50C4E356003E0094D0A4E356000BF72
:1002D00000BF064D2D68C5F30315084E705D054D32
:1002E0002D68C540034E356070BD000008380240DF
:1002F0000024F4001C00012040787D0194040008D3
:100300001448006840F47000124908601248006800
:1003100040F001001049086000200F4908310860D2
:100320000D4800680D4908400B4908600C48091D3C
:100330000860081F006820F48020091F0860002062
:1003400005490C3108604FF00060024980390860AF
:100350007047000088ED00E000380240FFFFF6FE25
:100360001030002402E008C8121F08C1002AFAD188
:1003700070477047002001E001C1121F002AFBD125
:10038000704700000E203849086038483849086036
:100390000020091D08603548091D08600020091D5E
:1003A00008604FF4AA40334908600020091D086026
:1003B0004FF4AA40091D08600020091D0860FFF7DE
:1003C0003FFF2D4800684108481EB0F1807F00D3F0
:1003D0001BE0481E4FF0E022506150170F2200280A
:1003E00004DB13071C0E254B1C5406E013071D0EDF
:1003F000234B00F00F04241F1D5500BF00204FF0B9
:10040000E02290610720106100BF2CE01D481E49CA
:10041000096850F821001649143108601B4801781A
:100420001020884013491431086018480068401CA7
:1004300016490860002000E0401C15490968884200
:10044000FADB11480068401C0F4908600846006844
:10045000042801D1002008600C480068042802D15B
:1004600000200A490860D1E73038024054150100E5
:1004700000040240000C02401C00012000E400E0E7
:1004800018ED00E0000001201800012010000120FC
:10049000140001200000000000000000010203041D
:1004A000060708090000000001020304CC0400084C
:1004B000000001202000000064030008EC04000894
:1004C0002000012000040000740300081001000057
:1004D00002000000620100001000000000000000A7
:0C04E000E8030000000000000024F4000D
:04000005080001DD11
:00000001FF
